{
  "_format": "hh-sol-artifact-1",
  "contractName": "ConfidentialPaymentGate",
  "sourceName": "contracts/ConfidentialPaymentGate.sol",
  "abi": [
    {
      "inputs": [
        {
          "internalType": "address",
          "name": "_cUSDT",
          "type": "address"
        },
        {
          "internalType": "address",
          "name": "_flowRegistry",
          "type": "address"
        }
      ],
      "stateMutability": "nonpayable",
      "type": "constructor"
    },
    {
      "inputs": [
        {
          "internalType": "bytes32",
          "name": "handle",
          "type": "bytes32"
        },
        {
          "internalType": "address",
          "name": "sender",
          "type": "address"
        }
      ],
      "name": "SenderNotAllowedToUseHandle",
      "type": "error"
    },
    {
      "inputs": [],
      "name": "ZamaProtocolUnsupported",
      "type": "error"
    },
    {
      "anonymous": false,
      "inputs": [
        {
          "indexed": true,
          "internalType": "address",
          "name": "oldAdmin",
          "type": "address"
        },
        {
          "indexed": true,
          "internalType": "address",
          "name": "newAdmin",
          "type": "address"
        }
      ],
      "name": "AdminTransferred",
      "type": "event"
    },
    {
      "anonymous": false,
      "inputs": [
        {
          "indexed": true,
          "internalType": "address",
          "name": "user",
          "type": "address"
        },
        {
          "indexed": false,
          "internalType": "uint256",
          "name": "timestamp",
          "type": "uint256"
        }
      ],
      "name": "Deposited",
      "type": "event"
    },
    {
      "anonymous": false,
      "inputs": [
        {
          "indexed": true,
          "internalType": "address",
          "name": "from",
          "type": "address"
        },
        {
          "indexed": true,
          "internalType": "address",
          "name": "to",
          "type": "address"
        },
        {
          "indexed": false,
          "internalType": "uint8",
          "name": "mode",
          "type": "uint8"
        },
        {
          "indexed": false,
          "internalType": "uint256",
          "name": "timestamp",
          "type": "uint256"
        }
      ],
      "name": "PaymentRouted",
      "type": "event"
    },
    {
      "anonymous": false,
      "inputs": [
        {
          "indexed": true,
          "internalType": "address",
          "name": "user",
          "type": "address"
        },
        {
          "indexed": false,
          "internalType": "bool",
          "name": "sanctioned",
          "type": "bool"
        }
      ],
      "name": "SanctionUpdated",
      "type": "event"
    },
    {
      "inputs": [],
      "name": "DEFAULT_CLIFF_OFFSET",
      "outputs": [
        {
          "internalType": "uint256",
          "name": "",
          "type": "uint256"
        }
      ],
      "stateMutability": "view",
      "type": "function"
    },
    {
      "inputs": [],
      "name": "DEFAULT_VEST_DURATION",
      "outputs": [
        {
          "internalType": "uint256",
          "name": "",
          "type": "uint256"
        }
      ],
      "stateMutability": "view",
      "type": "function"
    },
    {
      "inputs": [],
      "name": "MODE_LIQUID",
      "outputs": [
        {
          "internalType": "uint8",
          "name": "",
          "type": "uint8"
        }
      ],
      "stateMutability": "view",
      "type": "function"
    },
    {
      "inputs": [],
      "name": "MODE_VESTING",
      "outputs": [
        {
          "internalType": "uint8",
          "name": "",
          "type": "uint8"
        }
      ],
      "stateMutability": "view",
      "type": "function"
    },
    {
      "inputs": [],
      "name": "MODE_YIELD",
      "outputs": [
        {
          "internalType": "uint8",
          "name": "",
          "type": "uint8"
        }
      ],
      "stateMutability": "view",
      "type": "function"
    },
    {
      "inputs": [],
      "name": "admin",
      "outputs": [
        {
          "internalType": "address",
          "name": "",
          "type": "address"
        }
      ],
      "stateMutability": "view",
      "type": "function"
    },
    {
      "inputs": [],
      "name": "cUSDT",
      "outputs": [
        {
          "internalType": "address",
          "name": "",
          "type": "address"
        }
      ],
      "stateMutability": "view",
      "type": "function"
    },
    {
      "inputs": [],
      "name": "confidentialProtocolId",
      "outputs": [
        {
          "internalType": "uint256",
          "name": "",
          "type": "uint256"
        }
      ],
      "stateMutability": "view",
      "type": "function"
    },
    {
      "inputs": [
        {
          "internalType": "externalEuint64",
          "name": "encryptedAmount",
          "type": "bytes32"
        },
        {
          "internalType": "bytes",
          "name": "inputProof",
          "type": "bytes"
        }
      ],
      "name": "deposit",
      "outputs": [],
      "stateMutability": "nonpayable",
      "type": "function"
    },
    {
      "inputs": [],
      "name": "flowRegistry",
      "outputs": [
        {
          "internalType": "contract FlowRegistry",
          "name": "",
          "type": "address"
        }
      ],
      "stateMutability": "view",
      "type": "function"
    },
    {
      "inputs": [
        {
          "internalType": "address",
          "name": "user",
          "type": "address"
        }
      ],
      "name": "getBalance",
      "outputs": [
        {
          "internalType": "euint64",
          "name": "",
          "type": "bytes32"
        }
      ],
      "stateMutability": "view",
      "type": "function"
    },
    {
      "inputs": [
        {
          "internalType": "address",
          "name": "user",
          "type": "address"
        }
      ],
      "name": "hasBalance",
      "outputs": [
        {
          "internalType": "bool",
          "name": "",
          "type": "bool"
        }
      ],
      "stateMutability": "view",
      "type": "function"
    },
    {
      "inputs": [
        {
          "internalType": "address",
          "name": "recipient",
          "type": "address"
        },
        {
          "internalType": "externalEuint64",
          "name": "encryptedAmount",
          "type": "bytes32"
        },
        {
          "internalType": "bytes",
          "name": "inputProof",
          "type": "bytes"
        },
        {
          "internalType": "uint8",
          "name": "mode",
          "type": "uint8"
        }
      ],
      "name": "routePayment",
      "outputs": [],
      "stateMutability": "nonpayable",
      "type": "function"
    },
    {
      "inputs": [
        {
          "internalType": "address",
          "name": "",
          "type": "address"
        }
      ],
      "name": "sanctioned",
      "outputs": [
        {
          "internalType": "bool",
          "name": "",
          "type": "bool"
        }
      ],
      "stateMutability": "view",
      "type": "function"
    },
    {
      "inputs": [
        {
          "internalType": "address",
          "name": "_yieldVault",
          "type": "address"
        },
        {
          "internalType": "address",
          "name": "_vestingModule",
          "type": "address"
        }
      ],
      "name": "setModules",
      "outputs": [],
      "stateMutability": "nonpayable",
      "type": "function"
    },
    {
      "inputs": [
        {
          "internalType": "address",
          "name": "user",
          "type": "address"
        },
        {
          "internalType": "bool",
          "name": "status",
          "type": "bool"
        }
      ],
      "name": "setSanctioned",
      "outputs": [],
      "stateMutability": "nonpayable",
      "type": "function"
    },
    {
      "inputs": [
        {
          "internalType": "address",
          "name": "newAdmin",
          "type": "address"
        }
      ],
      "name": "transferAdmin",
      "outputs": [],
      "stateMutability": "nonpayable",
      "type": "function"
    },
    {
      "inputs": [],
      "name": "vestingModule",
      "outputs": [
        {
          "internalType": "contract IConfidentialVestingModule",
          "name": "",
          "type": "address"
        }
      ],
      "stateMutability": "view",
      "type": "function"
    },
    {
      "inputs": [],
      "name": "yieldVault",
      "outputs": [
        {
          "internalType": "contract IConfidentialYieldVault",
          "name": "",
          "type": "address"
        }
      ],
      "stateMutability": "view",
      "type": "function"
    }
  ],
  "bytecode": "0x60a060405234801561000f575f5ffd5b50604051611ce5380380611ce583398101604081905261002e916103bc565b6100e26100396101f2565b80517f9e7b61f58c47dc699ac88507c4f5bb9f121c03808c5676a8078fe583e464970080546001600160a01b03199081166001600160a01b039384161790915560208301517f9e7b61f58c47dc699ac88507c4f5bb9f121c03808c5676a8078fe583e46497018054831691841691909117905560408301517f9e7b61f58c47dc699ac88507c4f5bb9f121c03808c5676a8078fe583e46497028054909216921691909117905550565b6001600160a01b0382166101515760405162461bcd60e51b815260206004820152602b60248201527f436f6e666964656e7469616c5061796d656e74476174653a207a65726f20635560448201526a534454206164647265737360a81b60648201526084015b60405180910390fd5b6001600160a01b0381166101be5760405162461bcd60e51b815260206004820152602e60248201527f436f6e666964656e7469616c5061796d656e74476174653a207a65726f20726560448201526d676973747279206164647265737360901b6064820152608401610148565b5f80546001600160a01b031990811633179091556001600160a01b03928316608052600380549290931691161790556103ed565b604080516060810182525f80825260208201819052918101919091524660010361028b575060408051606080820183525f8083526020808401829052928401528251908101835273ca2e8f1f656cd25c01f05d0b243ab1ecd4a8ffb6815273d82385dada1ae3e969447f20a3164f6213100e75918101919091527377627828a55156b04ac0dc0eb30467f1a552bb039181019190915290565b4662aa36a70361030a575060408051606080820183525f8083526020808401829052928401528251908101835273f0ffdc93b7e186bc2f8cb3daa75d86d1930a433d81527392c920834ec8941d2c77d188936e1f7a6f49c1279181019190915273be0e383937d564d7ff0bc3b46c51f0bf8d5c311a9181019190915290565b46617a6903610388575060408051606080820183525f808352602080840182905292840152825190810183527350157cffd6bbfa2dece204a89ec419c23ef5755d815273e3a9105a3a932253a70f126eb1e3b589c643dd249181019190915273be0e383937d564d7ff0bc3b46c51f0bf8d5c311a9181019190915290565b6040516373cac13b60e01b815260040160405180910390fd5b80516001600160a01b03811681146103b7575f5ffd5b919050565b5f5f604083850312156103cd575f5ffd5b6103d6836103a1565b91506103e4602084016103a1565b90509250929050565b6080516118a861043d5f395f81816101420152818161059a015281816105e80152818161074e0152818161079c01528181610889015281816108d401528181610c690152610cb001526118a85ff3fe608060405234801561000f575f5ffd5b506004361061011b575f3560e01c80638927b030116100a9578063e29973fc1161006e578063e29973fc14610265578063e857901514610278578063eae4f19f1461028b578063f851a440146102ad578063f8b2cb4f146102bf575f5ffd5b80638927b0301461021a578063a7f8a5e214610222578063c4d109d714610235578063c76af7b01461023f578063d74a5d0014610252575f5ffd5b806322b2678a116100ef57806322b2678a1461018c578063300c3570146101c75780634fbe6b0b146101da57806375829def146101ef5780638709685614610202575f5ffd5b806243ee531461011f5780630614f2c91461013d5780630730d1b51461017c578063125d566c14610184575b5f5ffd5b6101265f81565b60405160ff90911681526020015b60405180910390f35b6101647f000000000000000000000000000000000000000000000000000000000000000081565b6040516001600160a01b039091168152602001610134565b610126600181565b610126600281565b6101b761019a366004611563565b6001600160a01b03165f9081526006602052604090205460ff1690565b6040519015158152602001610134565b600354610164906001600160a01b031681565b6101ed6101e83660046115c1565b6102e7565b005b6101ed6101fd366004611563565b61098c565b61020c62278d0081565b604051908152602001610134565b61020c610a78565b600154610164906001600160a01b031681565b61020c62ed4e0081565b600254610164906001600160a01b031681565b6101ed610260366004611633565b610a86565b6101ed610273366004611664565b610c21565b6101ed6102863660046116bc565b610de3565b6101b7610299366004611563565b60046020525f908152604090205460ff1681565b5f54610164906001600160a01b031681565b61020c6102cd366004611563565b6001600160a01b03165f9081526005602052604090205490565b6001600160a01b0385166103525760405162461bcd60e51b815260206004820152602760248201527f436f6e666964656e7469616c5061796d656e74476174653a207a65726f20726560448201526618da5c1a595b9d60ca1b60648201526084015b60405180910390fd5b600260ff821611156103b45760405162461bcd60e51b815260206004820152602560248201527f436f6e666964656e7469616c5061796d656e74476174653a20696e76616c6964604482015264206d6f646560d81b6064820152608401610349565b335f9081526006602052604090205460ff1661041e5760405162461bcd60e51b815260206004820152602360248201527f436f6e666964656e7469616c5061796d656e74476174653a206e6f206465706f6044820152621cda5d60ea1b6064820152608401610349565b5f61045e8585858080601f0160208091040260200160405190810160405280939291908181526020018383808284375f92019190915250610e6a92505050565b335f908152600460205260408120549192509061047e9060ff1615610ed9565b90505f610494828461048f5f610ef4565b610f0a565b335f90815260056020526040812054919250906104b2908390610f53565b90505f6104c3828461048f5f610ef4565b335f90815260056020526040812054919250906104fa9084906104e69087610f81565b335f90815260056020526040902054610f0a565b905061050581610faf565b506105108133610fcf565b50335f9081526005602052604090208190555f1960ff8816016106bf576001546001600160a01b03166105945760405162461bcd60e51b815260206004820152602660248201527f436f6e666964656e7469616c5061796d656e74476174653a207661756c74206e6044820152651bdd081cd95d60d21b6064820152608401610349565b6105be827f0000000000000000000000000000000000000000000000000000000000000000610ff2565b50600154604051632df5f6bf60e11b81526001600160a01b039182166004820152602481018490527f000000000000000000000000000000000000000000000000000000000000000090911690635bebed7e906044015f604051808303815f87803b15801561062b575f5ffd5b505af115801561063d573d5f5f3e3d5ffd5b505060015461065892508491506001600160a01b0316610ff2565b5060015460405163b9e1aa0360e01b81526001600160a01b038d81166004830152602482018590529091169063b9e1aa03906044015f604051808303815f87803b1580156106a4575f5ffd5b505af11580156106b6573d5f5f3e3d5ffd5b5050505061092c565b60011960ff881601610883576002546001600160a01b03166107345760405162461bcd60e51b815260206004820152602860248201527f436f6e666964656e7469616c5061796d656e74476174653a2076657374696e67604482015267081b9bdd081cd95d60c21b6064820152608401610349565b5f61074262278d00426116f1565b905062ed4e00610772847f0000000000000000000000000000000000000000000000000000000000000000610ff2565b50600254604051632df5f6bf60e11b81526001600160a01b039182166004820152602481018690527f000000000000000000000000000000000000000000000000000000000000000090911690635bebed7e906044015f604051808303815f87803b1580156107df575f5ffd5b505af11580156107f1573d5f5f3e3d5ffd5b505060025461080c92508691506001600160a01b0316610ff2565b5060025460405163270b938360e21b81526001600160a01b038f8116600483015260248201879052604482018590526064820184905290911690639c2e4e0c906084015f604051808303815f87803b158015610866575f5ffd5b505af1158015610878573d5f5f3e3d5ffd5b50505050505061092c565b6108ad827f0000000000000000000000000000000000000000000000000000000000000000610ff2565b50604051632df5f6bf60e11b81526001600160a01b038c81166004830152602482018490527f00000000000000000000000000000000000000000000000000000000000000001690635bebed7e906044015f604051808303815f87803b158015610915575f5ffd5b505af1158015610927573d5f5f3e3d5ffd5b505050505b610936828c610fcf565b506040805160ff891681524260208201526001600160a01b038d169133917fd01aba031a4bb23d318c9b7825aaf325b39be39953421d3eabc1864e681060bf910160405180910390a35050505050505050505050565b5f546001600160a01b031633146109b55760405162461bcd60e51b815260040161034990611710565b6001600160a01b038116610a1f5760405162461bcd60e51b815260206004820152602b60248201527f436f6e666964656e7469616c5061796d656e74476174653a207a65726f20616460448201526a6d696e206164647265737360a81b6064820152608401610349565b5f80546040516001600160a01b03808516939216917ff8ccb027dfcd135e000e9d45e6cc2d662578a8825d4c45b5e32e0adf67e79ec691a35f80546001600160a01b0319166001600160a01b0392909216919091179055565b5f610a8161100e565b905090565b5f546001600160a01b03163314610aaf5760405162461bcd60e51b815260040161034990611710565b6001600160a01b038216610b195760405162461bcd60e51b815260206004820152602b60248201527f436f6e666964656e7469616c5061796d656e74476174653a207a65726f20766160448201526a756c74206164647265737360a81b6064820152608401610349565b6001600160a01b038116610b855760405162461bcd60e51b815260206004820152602d60248201527f436f6e666964656e7469616c5061796d656e74476174653a207a65726f20766560448201526c7374696e67206164647265737360981b6064820152608401610349565b6001546001600160a01b031615610bf35760405162461bcd60e51b815260206004820152602c60248201527f436f6e666964656e7469616c5061796d656e74476174653a206d6f64756c657360448201526b08185b1c9958591e481cd95d60a21b6064820152608401610349565b600180546001600160a01b039384166001600160a01b03199182161790915560028054929093169116179055565b5f610c618484848080601f0160208091040260200160405190810160405280939291908181526020018383808284375f92019190915250610e6a92505050565b9050610c8d817f0000000000000000000000000000000000000000000000000000000000000000610ff2565b5060405163eb3155b560e01b8152336004820152306024820152604481018290527f00000000000000000000000000000000000000000000000000000000000000006001600160a01b03169063eb3155b5906064015f604051808303815f87803b158015610cf9575f5ffd5b505af1158015610d0b573d5f5f3e3d5ffd5b5050335f9081526006602052604090205460ff16159150610d6c905057335f90815260056020526040812054610d419083611042565b9050610d4c81610faf565b50610d578133610fcf565b50335f90815260056020526040902055610da8565b610d7581610faf565b50610d808133610fcf565b50335f90815260056020908152604080832084905560069091529020805460ff191660011790555b60405142815233907f2da466a7b24304f47e87fa2e1e5a81b9831ce54fec19055ce277ca2f39ba42c49060200160405180910390a250505050565b5f546001600160a01b03163314610e0c5760405162461bcd60e51b815260040161034990611710565b6001600160a01b0382165f81815260046020908152604091829020805460ff191685151590811790915591519182527f087c51f3303033f9686297ea31584d2ad5219efa00dc6204ec99425baf995a98910160405180910390a25050565b5f81515f14610e8657610e7f83836005611070565b9050610ed3565b825f819003610ea057610e985f610ef4565b915050610ed3565b610eaa813361116a565b610ed057604051630276b5d960e01b815260048101829052336024820152604401610349565b90505b92915050565b5f610ed382610ee8575f610eeb565b60015b60ff165f6111f6565b5f610ed38267ffffffffffffffff1660056111f6565b5f83610f1c57610f195f610ed9565b93505b82610f2d57610f2a5f610ef4565b92505b81610f3e57610f3b5f610ef4565b91505b610f49848484611285565b90505b9392505050565b5f82610f6557610f625f610ef4565b92505b81610f7657610f735f610ef4565b91505b610ed083835f61131b565b5f82610f9357610f905f610ef4565b92505b81610fa457610fa15f610ef4565b91505b610ed083835f6113c8565b5f81610fc157610fbe5f610ef4565b91505b610fcb823061142b565b5090565b5f82610fe157610fde5f610ef4565b92505b610feb838361142b565b5090919050565b5f82611004576110015f610ef4565b92505b610feb838361149f565b5f4660010361101d5750600190565b4662aa36a70361102e575061271190565b46617a690361103d57505f1990565b505f90565b5f82611054576110515f610ef4565b92505b81611065576110625f610ef4565b91505b610ed083835f6114e5565b5f5160206118335f395f51905f525460405163045fc19560e11b81525f915f5160206118535f395f51905f52916001600160a01b03909116906308bf832a906110c390889033908990899060040161177c565b6020604051808303815f875af11580156110df573d5f5f3e3d5ffd5b505050506040513d601f19601f8201168201806040525081019061110391906117cc565b8154604051630f8e573b60e21b8152600481018390523360248201529193506001600160a01b031690633e395cec906044015f604051808303815f87803b15801561114c575f5ffd5b505af115801561115e573d5f5f3e3d5ffd5b50505050509392505050565b5f805f5160206118535f395f51905f5280546040516382027b6d60e01b8152600481018790526001600160a01b0386811660248301529293509116906382027b6d90604401602060405180830381865afa1580156111ca573d5f5f3e3d5ffd5b505050506040513d601f19601f820116820180604052508101906111ee91906117e3565b949350505050565b5f5160206118335f395f51905f5254604051639cd07acb60e01b81525f915f5160206118535f395f51905f52916001600160a01b0390911690639cd07acb9061124590879087906004016117fe565b6020604051808303815f875af1158015611261573d5f5f3e3d5ffd5b505050506040513d601f19601f820116820180604052508101906111ee91906117cc565b5f805f5160206118535f395f51905f526001810154604051637702dcff60e01b81526004810188905260248101879052604481018690529192506001600160a01b031690637702dcff906064016020604051808303815f875af11580156112ee573d5f5f3e3d5ffd5b505050506040513d601f19601f8201168201806040525081019061131291906117cc565b95945050505050565b5f5f821561132e5750600160f81b611331565b505f5b5f5160206118335f395f51905f5254604051631d44e90160e21b81525f5160206118535f395f51905f52916001600160a01b031690637513a4049061137e90899089908790600401611812565b6020604051808303815f875af115801561139a573d5f5f3e3d5ffd5b505050506040513d601f19601f820116820180604052508101906113be91906117cc565b9695505050505050565b5f5f82156113db5750600160f81b6113de565b505f5b5f5160206118335f395f51905f52546040516303056db360e31b81525f5160206118535f395f51905f52916001600160a01b03169063182b6d989061137e90899089908790600401611812565b5f5160206118535f395f51905f528054604051635ca4b5b160e11b8152600481018590526001600160a01b0384811660248301529091169063b9496b62906044015b5f604051808303815f87803b158015611484575f5ffd5b505af1158015611496573d5f5f3e3d5ffd5b50505050505050565b5f5160206118535f395f51905f528054604051630f8e573b60e21b8152600481018590526001600160a01b03848116602483015290911690633e395cec9060440161146d565b5f5f82156114f85750600160f81b6114fb565b505f5b5f5160206118335f395f51905f525460405163022f65e760e31b81525f5160206118535f395f51905f52916001600160a01b03169063117b2f389061137e90899089908790600401611812565b80356001600160a01b038116811461155e575f5ffd5b919050565b5f60208284031215611573575f5ffd5b610ed082611548565b5f5f83601f84011261158c575f5ffd5b50813567ffffffffffffffff8111156115a3575f5ffd5b6020830191508360208285010111156115ba575f5ffd5b9250929050565b5f5f5f5f5f608086880312156115d5575f5ffd5b6115de86611548565b945060208601359350604086013567ffffffffffffffff811115611600575f5ffd5b61160c8882890161157c565b909450925050606086013560ff81168114611625575f5ffd5b809150509295509295909350565b5f5f60408385031215611644575f5ffd5b61164d83611548565b915061165b60208401611548565b90509250929050565b5f5f5f60408486031215611676575f5ffd5b83359250602084013567ffffffffffffffff811115611693575f5ffd5b61169f8682870161157c565b9497909650939450505050565b80151581146116b9575f5ffd5b50565b5f5f604083850312156116cd575f5ffd5b6116d683611548565b915060208301356116e6816116ac565b809150509250929050565b80820180821115610ed357634e487b7160e01b5f52601160045260245ffd5b6020808252602c908201527f436f6e666964656e7469616c5061796d656e74476174653a2063616c6c65722060408201526b34b9903737ba1030b236b4b760a11b606082015260800190565b6054811061177857634e487b7160e01b5f52602160045260245ffd5b9052565b84815260018060a01b0384166020820152608060408201525f8351806080840152806020860160a085015e5f60a0828501015260a0601f19601f830116840101915050611312606083018461175c565b5f602082840312156117dc575f5ffd5b5051919050565b5f602082840312156117f3575f5ffd5b8151610f4c816116ac565b82815260408101610f4c602083018461175c565b92835260208301919091526001600160f81b03191660408201526060019056fe9e7b61f58c47dc699ac88507c4f5bb9f121c03808c5676a8078fe583e46497019e7b61f58c47dc699ac88507c4f5bb9f121c03808c5676a8078fe583e4649700a2646970667358221220425617f2799ee292fbd5f1222684c80b637af4140d2f07761226818ac75a994964736f6c634300081c0033",
  "linkReferences": {},
  "deployedLinkReferences": {}
}